:020000040800F2
:10000000B0410020590200089B110008090E0008A9
:100010009911000851050008A9120008000000000D
:100020000000000000000000000000009D0100082A
:100030005305000800000000F1010008BD11000890
:1000400073020008730200087302000873020008BC
:1000500073020008730200087302000873020008AC
:10006000730200087302000873020008730200089C
:10007000730200087302000873020008730200088C
:10008000730200087302000873020008730200087C
:10009000730200087302000873020008730200086C
:1000A000730200087302000873020008730200085C
:1000B000730200087302000873020008730200084C
:1000C000730200087302000873020008730200083C
:1000D000730200087302000873020008730200082C
:1000E000730200087302000873020008730200081C
:1000F000730200087302000873020008730200080C
:1001000073020008730200087302000873020008FB
:1001100073020008730200087302000873020008EB
:1001200073020008730200087302000873020008DB
:1001300073020008730200087302000873020008CB
:1001400073020008730200087302000873020008BB
:1001500073020008730200087302000873020008AB
:10016000730200087302000873020008730200089B
:100170007302000873020008730200080000000008
:100180007302000873020008DFF80CD000F0CEF90B
:1001900000480047C9120008B04100202B4B1968E5
:1001A0000868B0E8F04F80F30988BFF36F8F4FF015
:1001B000000080F3118870470000000006480068C6
:1001C000006880F3088862B661B6BFF34F8FBFF353
:1001D0006F8F00DF00BF00BF08ED00E0DFF80C000C
:1001E000016841F470010160704700BF88ED00E0D4
:1001F000EFF30980BFF36F8F144B1A681EF0100FD6
:1002000008BF20ED108A20E9F04F106008B44FF0CD
:10021000500080F31188BFF34F8FBFF36F8F01F051
:1002200099FD4FF0000080F3118808BC1968086838
:10023000B0E8F04F1EF0100F08BFB0EC108A80F34A
:100240000988BFF36F8F704700BF00BF78000020A0
:10025000EFF30580704700000648804706480047D6
:10026000FEE7FEE7FEE7FEE7FEE7FEE7FEE7FEE766
:10027000FEE7FEE755120008890100082DE9F05F4E
:100280000546002092469B46884606468146402405
:100290001BE0284641464746224600F0D9F853461F
:1002A0005A46C01A914110D311461846224600F012
:1002B000C0F82D1A67EB01084F46224601200021A5
:1002C00000F0B7F817EB00094E41201EA4F101041D
:1002D000DFDC484631462A464346BDE8F09F40EA07
:1002E00001039B0703D009E008C9121F08C0042AB4
:1002F000FAD203E011F8013B00F8013B521EF9D29B
:1003000070472DE9FE4F81EA030404F0004421F018
:10031000004100944FF0000B23F0004350EA010429
:100320005ED052EA03045BD0C3F30A54C1F30A550A
:100330002C44A4F2F3340194A0FB0254C1F3130142
:1003400041F48011C3F3130343F4801301FB02440F
:1003500000FB034E840A970A44EA815447EA835714
:10036000A4FB076802958D0A05FB07854FEA932CCD
:1003700004FB0C542705029D4FEA065847EA16373E
:10038000B5EB08056EEB070C870E920E47EA811756
:1003900042EA8312A7FB0201B6EB0B0164EB0004F7
:1003A0002B0D43EA0C335E1844EB1C50DA465146E1
:1003B000E7FB0201C5F313044FEA0B3343EA14537E
:1003C0004FEA0432019C43EA0603A4F10C040294B0
:1003D000009CCDE900B400F05AF803B0BDE8F08FFE
:1003E00000200146F9E70EB540F2334102910021A9
:1003F000CDE900110A460B4600F049F803B000BDF4
:10040000C1F30A5210B5C1F3130140F2FF3341F4B6
:1004100080119A4201DA002010BD40F233439A4223
:10042000A2F2334203DC524200F012F810BD9040B9
:1004300010BD202A04DB203A00FA02F100207047A8
:100440009140C2F1200320FA03F319439040704712
:10045000202A04DB203A21FA02F00021704721FA19
:1004600002F3D040C2F12002914008431946704780
:1004700010B5141E73F1000408DA401C41F10001AC
:1004800092185B411A4301D120F0010010BD2DE903
:10049000F04D92469B4611B1B1FA81F202E0B0FAFA
:1004A00080F220329046FFF7C4FF04460F4640EA30
:1004B0000A0041EA0B0153465A46084313D011463D
:1004C00053EA010019D0C8F140025046FFF7C0FFBF
:1004D00005460E46504659464246FFF7AAFF0843D6
:1004E00005D0012004E020463946BDE8F08D00200B
:1004F000054346EAE0762C4337430A986305E40A4D
:10050000A0EB08000022FD0A44EA47540A3002D555
:1005100000200146E9E7010510196941DDE90845B8
:1005200000196941BDE8F04DA2E70000064C074DF7
:1005300006E0E06840F0010394E8070098471034B3
:10054000AC42F6D3FFF724FE302600085026000800
:10055000FEE7704770B5044600F0ECF80546601CF5
:1005600002D004480078044400F0E4F8401BA042A4
:10057000FAD370BD440000202DE9F84FDFF87CB1BC
:1005800000224FF001084FF0030A4FF00F090BF162
:10059000040E00BF0B6808FA02F42340A3426ED198
:1005A0004D68022D01D0122D0ED1D50800EB850C1F
:1005B000DCF820505607F70E09FA07F6B5430E6926
:1005C000BE402E43CCF82060066855000F790AFA29
:1005D00005FC07F0030726EA0C06AF403743076027
:1005E0004E68012E05D0022E03D0112E01D0122EFE
:1005F0000ED18668CF6826EA0C06AF403743876085
:100600004668A6430C79C4F3001494403443446014
:10061000C6688C6826EA0C06AC403443C4604C685B
:10062000E40065D5364C256845F48045256024688E
:1006300022F0030504F480440094324C2E19D6F8BD
:10064000084895072F0F09FA07F5AC432E4DA8422D
:1006500001D1002524E02D4DA84201D101251FE044
:100660002B4DA84201D102251AE02A4DA84201D102
:10067000032515E0284DA84202D1042510E037E0FB
:10068000264DA84201D105250AE0254DA84201D1F9
:10069000062505E0234DA84201D1072500E00825E5
:1006A000BD402543C6F80858DBF800405D464E685B
:1006B0009C43F60300D51C432C60DEF800407546D1
:1006C0004E689C43B60300D51C432C600B4D083587
:1006D0002C684E689C43F60200D51C432C60074DE5
:1006E0000C352C684E689C43B60200D51C432C6028
:1006F000521C102AFFF44EAFBDE8F88F003C0140B9
:100700004438024000300140000002400004024032
:1007100000080240000C0240001002400014024099
:1007200000180240001C02400AB1816170470904B0
:10073000FBE700000148806870470000440000208B
:1007400002488168027811448160704744000020AB
:100750000B4810B5016841F400710160016841F473
:1007600080610160016841F480710160032000F044
:100770008BF80F2000F006F800F024F8002010BDE0
:10078000003C024070B50D4D04464FF47A71287854
:10079000B1FBF0F00A490968B1FBF0F000F020FB72
:1007A00048B9102C07D200222146501E00F04CF808
:1007B00000206C6070BD012070BD0000440000206E
:1007C000500000201F4808B5016841F480410160D5
:1007D000006800F4804000901A48001F016841F052
:1007E00080510160006800F080500090032000F00C
:1007F0004BF8002211466FF00B0000F025F80022A4
:1008000011466FF00A0000F01FF8002211466FF049
:10081000090000F019F800221146501F00F014F8EA
:1008200000221146101F00F00FF800220F21901E29
:1008300000F00AF800220F21BDE80840501E00F029
:1008400003B8000044380240F0B40E4B1B680C465D
:10085000C3F30223C3F10705042D00D90425191D94
:10086000072901D2002300E0DB1E012606FA05F16C
:10087000491E214099409E40761E16403143F0BCEF
:1008800000F08CBC0CED00E0064900F0070208689F
:100890004FF6FF03184040EA0220034A1043086065
:1008A000704700000CED00E00000FA052DE9F0476C
:1008B0000E46050065D0DFF81481D8F80000F7B2C5
:1008C00000F00F00B04207D288F80070D8F800009E
:1008D00000F00F00B04254D128683D4C810712D57A
:1008E000400703D5206840F4E050206028780007D6
:1008F00003D5206840F4604020602068A96820F09B
:10090000F000084320602878C0072DD0304968687F
:100910000839012812D0022813D0032811D0096801
:10092000890700292DDA216821F0030101432160A4
:10093000FFF700FF814641F2883A0EE0096889031B
:10094000EFE709688901ECE7FFF7F4FEA0EB090186
:10095000514502D90320BDE8F0872068696800F09E
:100960000C00B0EB810FEFD1D8F80010404601F039
:100970000F01B14207D90770006800F00F00B042C4
:1009800001D00120E7E72878400705D52068E9680D
:1009900020F4E050084320602878000706D520683E
:1009A000296920F4604040EAC100206000F04CF862
:1009B0002168084AC1F30311515CC8400649086028
:1009C0000F20FFF7DFFE0020C5E70000003C0240DB
:1009D0000838024018260008500000200F2202604C
:1009E0000C4A136803F003034360136803F0F00339
:1009F0008360136803F4E053C36012684FF4E0535C
:100A000003EAD20202610448006800F00F000860A7
:100A10007047000008380240003C0240014800686E
:100A2000704700005000002004480549006809682C
:100A3000044AC1F38221515CC84070475000002035
:100A40000838024028260008154810B5006810F044
:100A50000C02144813D01449042A0FD0082A0ED1CE
:100A60000F4C241F2268236802F03F025B0207D567
:100A70002068C0F38810A0FB010106E0084610BD05
:100A80002168C1F38811A1FB00010023FFF7F6FBE9
:100A90002168C1F30141491C4900B0FBF1F010BDD0
:100AA000083802400024F40040787D012DE9F84F19
:100AB000050076D02878DFF8F8B2BE4CC00749D0E0
:100AC000DBF800105846C1F38101012908D0006805
:100AD000C0F3810002280AD1201D0068400206D51B
:100AE0002068800336D568680028E2D032E0686864
:100AF000B0F5803F10D0B0F5A02F206810D020F4C2
:100B000080302060206820F4802020606868A0B1D8
:100B1000FFF710FE06460CE0206840F48030F4E752
:100B200040F480202060F7E7FFF704FE801B642874
:100B300073D820688003F7D50CE0FFF7FBFD06466D
:100B400005E000BFFFF7F6FD801B6428F0D82068A1
:100B50008003F7D42878DFF8608280074FF000091F
:100B60003ED5DBF80010584611F00C0F09D0006894
:100B7000C0F3810002280BD18D48001F006840029D
:100B800006D42068800715D5E868012809D111E04E
:100B9000E868B8B10120C8F80000FFF7CBFD0646B1
:100BA00005E002E1FFF7C6FD801B0228C0D82068DF
:100BB0008007F7D52068296920F0F80040EAC100D5
:100BC00020600DE0C8F80090FFF7B4FD064604E091
:100BD000FFF7B0FD801B02281FD820688007F7D4DC
:100BE0002878000722D5724E744869696C3671B155
:100BF00001210160FFF79EFD074604E0FFF79AFD23
:100C0000C01B022809D830688007F7D50EE0C0F86D
:100C10000090FFF78FFD074605E083E0FFF78AFDB0
:100C2000C01B02287ED830688007F7D42878400798
:100C300068D5DFF87CA100270AF1380ADAF800004D
:100C4000C0000BD4DAF8001041F08051CAF800104F
:100C5000DAF80000012700F080500090584E30680C
:100C6000C00510D4306840F480703060FFF762FD3A
:100C7000009005E0FFF75EFD0099401A022851D868
:100C80003068C005F6D54A4EA868683601280FD0EE
:100C90000528306810D020F001003060306820F066
:100CA00004003060A868B8B1FFF744FD00900FE081
:100CB000306840F00100F4E740F004003060F7E7EE
:100CC000FFF738FD0099411A41F28830814264D81B
:100CD00030688007F4D50EE0FFF72CFD009007E0A8
:100CE000FFF728FD0099411A41F28830814254D81B
:100CF00030688007F4D42FB1DAF8001021F0805169
:100D0000CAF80010A869C0B3DBF80010C1F3810174
:100D100002294AD00228484607D0C8F86000FFF7E9
:100D200009FD00E039E005463AE04746C8F86000B2
:100D3000FFF700FD064604E0FFF7FCFC801B0228DD
:100D40002BD820688001F7D4D5E907010843A96AA8
:100D50001C4A490802EB01416A6A41EA82110843D0
:100D600095F82C1040EA01611148001F0160012034
:100D70003866FFF7DFFC054605E014E0FFF7DAFC14
:100D8000401B022809D820688001F7D50BE000BF7E
:100D9000FFF7D0FC401B022802D90320BDE8F88FE2
:100DA00020688001F4D40020F8E70120F6E7000075
:100DB000083802400038024000004742800E474297
:100DC000007000400000FFFF4FF0E0210428086998
:100DD00003D020F004000861704740F00400FAE7F7
:100DE00010B5401EB0F1807F01D3012010BD4FF03F
:100DF000E02460610F21601700F0D0F90020A061AD
:100E000007202061002010BDFEE700002DE9F05F03
:100E10000AAC94E8E05F1E4CA061A180E280E3612F
:100E200025816681A781A4F80E80C4F82090A4F8DB
:100E300010A0A4F812B0A4F814C0A4F816E000F0B2
:100E400049F8012020703820A0701420FFF782FBA1
:100E5000302000F045F90520FFF77CFB302000F042
:100E60003FF90120FFF776FB302000F039F901202F
:100E7000FFF770FB382000F033F90F2000F030F955
:100E8000012000F02DF9BDE8F05F0220FFF762BB02
:100E90002000002010B5094C0122E188A069FFF76D
:100EA00043FC0A2000F060F80022E188A069FFF707
:100EB0003BFCBDE810403C2000F056B8200000206C
:100EC000020003488188806900D00122FFF72CBC12
:100ED0002000002000B587B005A96846FFF77EFD19
:100EE0000398A8B3FFF7A0FD5FEA4000FFF77BFA85
:100EF0009FED191B53EC112BFFF703FAFFF780FA54
:100F000017490A6842F002020A6016490A6822F08C
:100F100010020A600A6822F001020A600A6822F0E0
:100F200004020A600A6842F008020A600D4928318A
:100F3000401E08600920091D08600A49012014317B
:100F40000860081F016821F00101016007B000BDC1
:100F5000FFE7FFF769FDC9E78DEDB5A0F7C6B03E25
:100F600040380240000400400949401E086008481B
:100F70001C38016821F00101016005492C390A681B
:100F800042F001020A600168C907FCD07047000006
:100F90002C04004010B5012000F0A2F8BDE810407C
:100FA0000320FFF7D7BA70B50646002409E00120F8
:100FB000FFF786FF284600F021F8641CE4B2102CED
:100FC00002D2355D002DF2D170BD0000491E01F046
:100FD0000F01012808D0022809D003280AD041F0C7
:100FE000D00000BF00F07CB841F08000FAE741F08B
:100FF000C000F7E741F09000F4E700002DE9F84F5A
:101000000209364C02F0080302F0040B217802F0CA
:10101000020902F0010700F0080A00F0040600F0DF
:10102000020500F00108009301292FD0022952D1B6
:101030003A46218A206AFFF777FB4A46618A206A8E
:10104000FFF772FB5A46A18A206AFFF76DFBE18A1F
:10105000009A206AFFF768FBFFF71CFF4246218ACF
:10106000206AFFF761FB2A46618A206AFFF75CFB72
:101070003246A18A206AFFF757FB5246E18A206A6E
:10108000FFF752FBBDE8F84FFFF704BF4246218946
:10109000E069FFF749FB2A466189E069FFF744FBF5
:1010A0003246A189E069FFF73FFB5246E189E069DA
:1010B000FFF73AFB3A46218A206AFFF735FB4A469A
:1010C000618A206AFFF730FB5A46A18A206AFFF73F
:1010D0002BFB009AD2E7BDE8F88F0000200000202B
:1010E00010B504460020FFF7EBFE2046BDE8104097
:1010F000FFF784BF2DE9F041234886B00024016842
:1011000041F001010160016801F0010105910168F0
:1011100041F008010160016801F0080105910168D2
:1011200041F0040101600068184F00F0040040F233
:10113000FF750590002229463846FFF7F5FADFF8DB
:1011400050804FF4E076002231464046FFF7ECFA3B
:1011500000950125CDE90154694638460394FFF70F
:101160000BFAF001CDE9000469460A480294FFF742
:1011700003FA0096CDE90154694640460394FFF70F
:10118000FBF906B0BDE8F0813038024000000240B3
:1011900000080240000C0240FEE770470907090EF4
:1011A000002806DA00F00F0000F1E02080F8141D9E
:1011B000704700F1E02080F80014704710B5FFF789
:1011C000BFFABDE8104000F0F5B8000010B51F48A8
:1011D00092B00024016841F080510160006800F085
:1011E000805011901A48016841F480410160006804
:1011F000069400F48040119002200090012003909A
:10120000102004906846FFF751FC00B1FEE70F2064
:10121000CDE90C040E940F9400210CA81094FFF754
:1012200045FB00B1FEE7FFF7F9FB4FF47A71B0FB25
:10123000F1F0FFF7D5FD0420FFF7C6FD00220F21D6
:10124000501EFFF701FB12B010BD000040380240F5
:10125000007000401048016841F4700101600F48BF
:10126000016841F0010101600C4A0021083211605F
:1012700002680B4B1A400260031D0A4A1A6002689A
:1012800022F48022026005480C30016002495806B1
:10129000803908607047000088ED00E000380240A7
:1012A000FFFFF6FE10300024FEE702E008C8121F20
:1012B00008C1002AFAD170477047002001E001C13F
:1012C000121F002AFBD170472D488AB000254560C7
:1012D0008560FFF73DFAFFF779FFFFF70BFF0DF190
:1012E000140C80234022202110208CE80F000821BC
:1012F00004222448CDE90221022701260346049056
:1013000082150115CDE90067FFF780FDFFF742FE6A
:1013100000220221032000F0E2FD1B4C00220421E8
:101320006061012000F0DBFDA060002204210120AB
:1013300000F0D5FDE0602169A06800F0BFFDD4E9B0
:10134000030100F0BBFDCDE900654FF47A74002382
:1013500022460EA10F4800F0D9FFCDE90065002319
:1013600022460DA10E4800F0D1FFCDE90075002303
:1013700022460CA10E4800F0C9FF00F0AFFCFEE7CA
:10138000B4000020000002400000002053656E649D
:10139000657231004D1B000853656E646572320042
:1013A0007D1B000852656365697665720000000068
:1013B0001D1B000810B500F0D5FF012803D0BDE8C3
:1013C000104000F065BD10BD2DE9F041184C0F46EE
:1013D0000546E6682068001D00F0ECFA38B9206880
:1013E00090F82C1001208840216981432161681CFC
:1013F00007D137B12168BDE8F0410E48091D00F062
:1014000011BB20683544B5424560216805D2A06B08
:10141000BDE8F041091D00F0EDBA606B091D00F058
:10142000E9FAA06A854200D2A562BDE8F081000019
:10143000780000209C3D00202DE9F041054600F099
:10144000FDFA2E4CA068401CA06020682C4F10B103
:10145000606940B32DE02560A068012829D10026ED
:1014600006EB860007EB800000F0B6FA761C072E2C
:10147000F6D323488C3000F0AFFA2148A03000F0BA
:10148000ABFA1F48B43000F0A7FA1D48C83000F08E
:10149000A3FA1B48DC3000F09FFA19488C306063D7
:1014A0001430A06305E02068E96AC06A884200D869
:1014B0002560606A401C6062E96A012022698840F8
:1014C0001043206101EB810007EB8000291D00F033
:1014D000A9FA00F0D3FA606900280CD02068E96A04
:1014E000C06A884207D207494FF080500860BFF3B6
:1014F0004F8FBFF36F8FBDE8F081000078000020B0
:10150000C03C002004ED00E070B5114E114C17E016
:1015100000F018FC3068B8B101F01CF800F08EFA49
:10152000F068C568281D00F045FAA068401EA0605C
:101530006068401E606000F0A1FA284600F055F88F
:1015400060680028E4D170BD01F004F8F8E70000FD
:10155000883D00207800002030B4026C0B46002A41
:101560000BD0C1681144C1604468A14201D3016835
:10157000C16030BC1846FEF7B2BE30BC70472DE9E2
:10158000F041856B174604460026026C82B1C7B154
:10159000E068FEF7A4FEE168206C091AE1602268A9
:1015A000914202D26168081AE060022F16D017E05B
:1015B0002068A8B9606800F047FF06460020606018
:1015C0000EE0A068FEF78BFE216CA0680844A060C6
:1015D0006168884204D32068A06001E005B16D1EF7
:1015E0006D1CA5633046BDE8F08110B50446006B64
:1015F00000F058FA2046BDE8104000F053BA000051
:1016000010484FF47051420706D0C01D0D4920F01C
:101610000700411AC1F570510B4A00230144C2E989
:1016200000030839103A21F0070111604B600B608C
:101630000B1AC0E9001393604FF000405360D06074
:1016400070470000C000002064000020074C4FF0ED
:101650008056074DFFF758FF20680128FAD92E6001
:10166000BFF34F8FBFF36F8FF4E70000C03C002043
:1016700004ED00E02DE9F0479A46DDE90984814652
:101680006FF00303206B03EB82021044089D20F0EF
:101690000706700707D0502080F31188BFF34F8FE3
:1016A000BFF36F8FFEE723180A5C83F834200A5CCF
:1016B00012B1401C1028F6D3002784F84370072D80
:1016C00000D30625E562C4E91157201D00F08FF90B
:1016D00004F1180000F08BF92461C5F10700646281
:1016E000A061E76484F8507052464946304600F0E5
:1016F0004BF92060B8F1000F01D0C8F80040BDE8F8
:10170000F087000030B5114900E011460A688242B6
:10171000FBD34B685C18844203D14068184448608E
:10172000084643681C18944209D1084C103C2468B0
:10173000A24209D052681A4442600A6812680260E4
:10174000814200D0086030BD0460F9E764000020E9
:1017500010B5044600F072F9A06B28B15FF00004E8
:1017600000F08CF9204610BD0124F9E773B500267E
:101770000098846C5CB1A26BE06B82420FD3502066
:1017800080F31188BFF34F8FBFF36F8FFEE75020B8
:1017900080F31188BFF34F8FBFF36F8FFEE7A26B0B
:1017A00082420CD294F945500A4669462046FFF71A
:1017B000E6FE0646681C04D06D1C84F84550304691
:1017C0007CBD606A0028FAD004F1240000F088FE95
:1017D0000028F4D00126F2E70648416B096829B1D8
:1017E000416BC968C9684968816270474FF0FF3131
:1017F000FAE700007800002008484068401C4FF0DD
:10180000500080F3118804D0BFF34F8FBFF36F8F68
:10181000FEE7BFF34F8FBFF36F8FFEE76C00002032
:101820002DE9F041044600F009F994F9455004F11E
:10183000240610E0A06C20B100212046FFF796FF9F
:1018400004E0606A48B1304600F04AFE08B100F09A
:10185000D3F96D1E6DB2002DECDC4FF0FF3684F82D
:10186000456000F00BF900F0E9F894F9445004F1F8
:10187000100709E0206948B1384600F031FE08B190
:1018800000F0BAF96D1E6DB2002DF3DC84F84460EF
:10189000BDE8F04100F0F2B82DE9F041054600271F
:1018A00000F050FA314E306808B9FFF7A9FEF06831
:1018B00005424BD1C5B3083568070ED005F00700C7
:1018C000C0F108000544680707D0502080F3118854
:1018D000BFF34F8FBFF36F8FFEE72DB37068854264
:1018E00034D82248103001460C6801E020460C46EE
:1018F0006168A94202D221680029F7D131688C427F
:1019000024D007682168016060680837411B1029EE
:101910000FD96019420708D0502080F31188BFF317
:101920004F8FBFF36F8FFEE710E041606560FFF7F8
:10193000E9FE61687068401A7060B268904200D237
:10194000B060F06801430020C4E9000100F002FE2D
:10195000780707D0502080F31188BFF34F8FBFF373
:101960006F8FFEE73846BDE8F0810000540000208C
:101970000449086818B10868826C521C82640868BF
:10198000704700007800002010B5031F4FF08074EE
:101990001C601B1F21F001011960191F044B0B6013
:1019A00014390A60091F6FF0020244380A6010BD42
:1019B000F9170008D0E9013201699A60D0E90123E2
:1019C0005A604A68824201D182684A6000220261FC
:1019D0000868401E0860704700F108014FF0FF32B0
:1019E000C0E90112C160016100210160704700215E
:1019F0000161704730B50B685A1C02D000F1080233
:101A000002E0026904E02246546825689D42FAD942
:101A100053684B6099608A60516008610168491C95
:101A2000016030BD42684A6093688B60936859607A
:101A3000916008610168491C01607047502080F383
:101A40001188BFF34F8FBFF36F8F0A494868401C5E
:101A5000486001280CD10848006810F0FF0F07D03B
:101A6000502080F31188BFF34F8FBFF36F8FFEE7D5
:101A7000704700006C00002004ED00E00849486851
:101A800028B1401E486001D180F311887047502072
:101A900080F31188BFF34F8FBFF36F8FFEE7000015
:101AA0006C00002070B5002827D0144DA0F1080468
:101AB0006168E868014207D1502080F31188BFF3C4
:101AC0004F8FBFF36F8FFEE722683AB1502080F34B
:101AD0001188BFF34F8FBFF36F8FFEE781436160C3
:101AE00000F030F960686968084468602046FFF7D4
:101AF00009FEBDE8704000F02DBD70BD540000200F
:101B0000054814210068B0FBF1F14FF0E020491EB8
:101B100041610721016170475000002008B50A4C5F
:101B20004FF0FF352946206900F0B0FB00231A462C
:101B3000694600F0FBF901210220FFF747FA0098FF
:101B4000FFF731FAEEE700000000002008B506A01C
:101B5000094C0090022000F029F800231A4669463B
:101B6000A06800F0DDFAF5E77653656E646572549F
:101B700061736B31000000000000002008B506A072
:101B8000094C0090042000F011F800231A46694621
:101B9000E06800F0C5FAF5E77653656E6465725447
:101BA00061736B32000000000000002010B50200DD
:101BB00014D00F48006B38B1502080F31188BFF368
:101BC0004F8FBFF36F8FFEE700F0BCF80021104687
:101BD000FFF7FAFB00F0BEFC002807D105494FF0E3
:101BE00080500860BFF34F8FBFF36F8F10BD0000B0
:101BF0007800002004ED00E001490120C861704731
:101C00007800002010B50C4650B109490968183118
:101C1000FFF7F0FE2046BDE810400121FFF7D4BBDE
:101C2000502080F31188BFF34F8FBFF36F8FFEE713
:101C30007800002070B5040039D01D4DE06A296895
:101C4000C96A884233D2A069002804DB2868C06AC8
:101C5000C0F10700A061E16A164E01EB81016069E5
:101C600006EB810188421FD1201DFFF7A3FE012151
:101C700050B9E06A00EB800256F8222022B92A69A6
:101C800001FA00F082432A612868C06AE0622A698A
:101C900081401143296100EB800006EB8000211D8B
:101CA000BDE87040FFF7BEBE2868C06AE06270BD44
:101CB00078000020C03C002028B107490A6A026071
:101CC000C96841607047502080F31188BFF34F8F7F
:101CD000BFF36F8FFEE70000780000201CB51548A9
:101CE0000024CDE900402346802213A1144800F0CF
:101CF0000DFB012809D0401C1AD1502080F3118817
:101D0000BFF34F8FBFF36F8FFEE7502080F3118832
:101D1000BFF34F8FBFF36F8F06484FF0FF312C3862
:101D2000816201214161C460BDE81C4000F040B8FF
:101D30001CBD0000A400002049444C4500000000E8
:101D40004D1600080248016B491C016370470000F2
:101D5000780000201448016B11B10121C161704766
:101D60000021C1610169B1FA81F1C1F11F0101EBEB
:101D700081020E4951F822306BB101EB820101F171
:101D800008034A6852684A609A4201D152684A6020
:101D9000D16801607047502080F31188BFF34F8FE6
:101DA000BFF36F8FFEE7000078000020C03C0020EA
:101DB0001CB532480168324A914207D1502080F365
:101DC0001188BFF34F8FBFF36F8FFEE700682C4978
:101DD000491E884207D1502080F31188BFF34F8FEE
:101DE000BFF36F8FFEE7274908780190FF20087046
:101DF00008788DF800009DF800009DF8002000F0A4
:101E0000F000904207D0502080F31188BFF34F8F2D
:101E1000BFF36F8FFEE79DF800001B4A00F05000F3
:101E200010700720906005E09DF800305B008DF891
:101E30000030401E9DF800301B06F5D4000200F46F
:101E4000E0609060019808700C482030016841F40F
:101E500070010160016841F070410160FFF750FEC0
:101E600000205060FEF7BAF90848016841F040418F
:101E70000160FEF7A3F900201CBD000000ED00E0AA
:101E800071C20F4100E400E06C00002034EF00E07C
:101E900010B5502080F31188BFF34F8FBFF36F8FC1
:101EA00000F06EFA18B104494FF08050086000202D
:101EB00080F3118810BD000004ED00E070B50D4600
:101EC0000446FFF7BBFDA06C08B9A06B08B1002465
:101ED00001E0A5640124FFF7D1FD204670BD70B577
:101EE0000E46050015D0E6B105FB06F04C30FFF7B5
:101EF000D3FC04000CD004F14C00A6B12060C4E96E
:101F00000F562046012100F0C7F800212046A164A9
:101F100070BD502080F31188BFF34F8FBFF36F8FD8
:101F2000FEE70020E2E72460E9E700002DE9FF4F2B
:101F3000002683B09B468A46040003D0BAF1000F06
:101F400008D011E0502080F31188BFF34F8FBFF30A
:101F50006F8FFEE7206C38B1502080F31188BFF3FB
:101F60004F8FBFF36F8FFEE700F0FCF9DFF824819D
:101F70004FF000094FF0805748B9059838B150200C
:101F800080F31188BFF34F8FBFF36F8FFEE7FFF72A
:101F900055FDA56B45B351462046E668FFF7DCFAD0
:101FA000BBF1000F13D0E660606A50B104F1240069
:101FB00000F096FA28B1C8F80070BFF34F8FBFF356
:101FC0006F8FFFF75BFD012007B0BDE8F08F6D1E3E
:101FD000A563206810B9FFF7CBFC6060206900287A
:101FE000EFD004F11000E3E7059808B11EB106E058
:101FF000FFF744FD27E06846FFF75EFE0126FFF786
:102000003DFDFFF79FFEFFF719FD94F94400401CCA
:1020100001D184F8449094F94500401C01D184F822
:102020004590FFF72BFD05A9684600F039F9002817
:1020300020460AD0FFF7F4FB00F08CFA2046FFF7A9
:1020400087FB0028A3D00020BEE7FFF781FBD8B1B3
:10205000206830B9FFF7F2FC6068FFF7EBFDFFF78F
:102060000DFD04F124000599FFF7CCFD2046FFF794
:10207000D7FB00F06FFA002889D1C8F80070BFF3D1
:102080004F8FBFF36F8F82E72046FFF7C9FB00F049
:1020900061FA7CE704ED00E070B50D46040025D040
:1020A000FFF7CCFCD4E90F20216802FB001161602E
:1020B0000021A1632168A1600A46D4E90F01401EF6
:1020C00000FB0121E16021464FF0FF3001F8440F91
:1020D000487004F110008DB1FFF77EFC04F124007C
:1020E000FFF77AFCFFF7CAFC012070BD502080F397
:1020F0001188BFF34F8FBFF36F8FFEE7216900296F
:10210000F0D000F0EDF90028ECD004494FF08050F9
:102110000860BFF34F8FBFF36F8FE3E704ED00E07C
:102120002DE9FF4782B01D468A464FF000080400A3
:1021300003D0BAF1000F08D011E0502080F31188CD
:10214000BFF34F8FBFF36F8FFEE7206C38B1502085
:1021500080F31188BFF34F8FBFF36F8FFEE7022D1F
:102160000AD1E06B012807D0502080F31188BFF31B
:102170004F8FBFF36F8FFEE700F0F4F8424F4FF040
:1021800000094FF0805648B9049838B1502080F3C8
:102190001188BFF34F8FBFF36F8FFEE7FFF74EFC41
:1021A000A06BE16B884207D3022D05D0049808B3D9
:1021B000B8F1000F21D025E02A4651462046FFF70E
:1021C000DEF9A16C21B129462046FFF7CFFA05E0E0
:1021D000616A19B104F1240000F082F920B13E6077
:1021E000BFF34F8FBFF36F8FFFF748FC012006B09E
:1021F000BDE8F087FFF742FC22E06846FFF75CFD90
:102200004FF00108FFF73AFCFFF79CFDFFF716FCC3
:1022100094F94400401C01D184F8449094F945009D
:10222000401C01D184F84590FFF728FC04A96846BA
:1022300000F036F830B12046FFF7F2FA00F08AF9E4
:102240000020D4E7FFF7FAFBA06BE16B884213D1C3
:10225000FFF714FC04F110000499FFF7D3FC2046AB
:10226000FFF7DEFA00F076F9002897D13E60BFF361
:102270004F8FBFF36F8F91E7FFF700FC2046FFF70A
:10228000CFFA00F067F989E704ED00E008B5002215
:10229000134600920A466946FFF748FE009808BDBB
:1022A00070B50D46040019D005B3FFF7C7FB164AF9
:1022B000D1682868431C0FD02368126A934202D069
:1022C00062688A421AD96268891A814216D2401A13
:1022D00028602046FFF7F0FC002410E0502080F337
:1022E0001188BFF34F8FBFF36F8FFEE7502080F34D
:1022F0001188BFF34F8FBFF36F8FFEE70124FFF705
:10230000BDFB204670BD0000780000202DE9FF5F76
:102310008346DDE90E87994616468A469000FFF708
:10232000BBFA05001AD05420FFF7B6FA040012D009
:1023300025630021CDE90241CDE900874B463246B5
:1023400051465846FFF796F92046FFF775F80120E9
:1023500004B0BDE8F09F2846FFF7A4FB4FF0FF3024
:10236000F6E700000548416919B1006B18B100207B
:10237000704701207047022070470000780000205D
:102380002DE9F0412E4C0027206B40B1A069401C84
:10239000A061E06900B101273846BDE8F081E66838
:1023A000761CE66013D1606B006838B1502080F372
:1023B0001188BFF34F8FBFF36F8FFEE7606BA16B88
:1023C0006163A063206A401C2062FFF705FAA06ADF
:1023D000DFF87080864209D3606B006880B1606B63
:1023E000C068C568686886420DD2A0622068C06A6D
:1023F00000EB800158F821000128CAD90127C8E75D
:102400004FF0FF30F1E7281DFFF7D4FAA86A18B1A2
:1024100005F11800FFF7CEFAE86A01212269814030
:102420001143216100EB800108EB8100291DFFF7BA
:10243000F9FAE86A2168C96A8842CDD30127CBE757
:1024400078000020C03C002070B504004FF000016F
:1024500040D0214D2868844207D0502080F3118855
:10246000BFF34F8FBFF36F8FFEE7A06C38B1401EF4
:10247000A064636CE26A9A422CD040B12AE05020FA
:1024800080F31188BFF34F8FBFF36F8FFEE7201DDE
:10249000FFF790FA114A012150B9E06A00EB80037E
:1024A00052F8233023B92B6901FA00F083432B61E2
:1024B000606CE062C0F10700A061E06A2B698140B6
:1024C0001943296100EB800002EB8000211DFFF71A
:1024D000A9FA0121084670BD78000020C03C002008
:1024E0002DE9F041C068C468ACB104F1180007469A
:1024F000FFF760FA154D286B0126A0B13946144844
:10250000FFF790FAE06A2968C96A88421CD901205D
:10251000EE61BDE8F081502080F31188BFF34F8F4A
:10252000BFF36F8FFEE7201DFFF744FAE16A2A69C7
:1025300006FA01F01043286101EB81000449B43927
:1025400001EB8000211DDBE70020E2E7780000209E
:10255000743D00202DE9F0472C4D00242746286BC0
:1025600038B1FFF76BFA286B401E2863286B40B127
:1025700046E0502080F31188BFF34F8FBFF36F8F79
:10258000FEE7A968224E0120D1B3A6F1B409804626
:102590003068E8B1F068C46804F11800FFF70AFA7F
:1025A000201DFFF707FAE06A2A6908FA00F11143D3
:1025B000296100EB800109EB8100211DFFF732FA50
:1025C000E06A2968C96A8842E2D3C5F81C80DFE75F
:1025D0000CB1FFF701F9AC6944B14646FFF7D0FEF4
:1025E00000B1EE61641EF9D10020A861E86938B13C
:1025F0000849012738070860BFF34F8FBFF36F8F7B
:10260000FFF73CFA3846BDE8F0870000780000206C
:10261000743D002004ED00E0000000000000000018
:102620000102030406070809000000000102030478
:102630005026000800000020B4000000AA12000884
:1026400004270008B4000020FC400000BA12000873
:10265000000000000000000000000000000000007A
:1026600000000000000000000000000180004000A9
:10267000010F380000000000000000000000000012
:10268000000000000000000000000000000000004A
:102690000000000001000000100000000000000029
:1026A0000024F40000000000000000000000000012
:1026B000000000000000000000000000000000001A
:1026C000AAAAAAAA00000000000000000000000062
:1026D00000000000000000000000000000000000FA
:1026E00000000000000000000000000000000000EA
:1026F00000000000000000000000000000000000DA
:0427000000000000D5
:040000050800018965
:00000001FF
