:020000040800F2
:10000000A8410020590200088F140008E5100008DC
:100010008D1400082D0800089D1500080000000040
:100020000000000000000000000000009D0100082A
:100030002F08000800000000F1010008B1140008BA
:1000400073020008730200087302000873020008BC
:1000500073020008730200087302000873020008AC
:10006000730200087302000873020008730200089C
:10007000730200087302000873020008730200088C
:10008000730200087302000873020008730200087C
:10009000730200087302000873020008730200086C
:1000A000730200087302000873020008730200085C
:1000B000730200087302000873020008730200084C
:1000C000730200087302000873020008730200083C
:1000D000730200087302000873020008730200082C
:1000E000730200087302000873020008730200081C
:1000F000730200087302000873020008730200080C
:1001000073020008730200087302000873020008FB
:1001100073020008730200087302000873020008EB
:1001200073020008730200087302000873020008DB
:1001300073020008730200087302000873020008CB
:1001400073020008730200087302000873020008BB
:1001500073020008730200087302000873020008AB
:10016000730200087302000873020008730200089B
:100170007302000873020008730200080000000008
:100180007302000873020008DFF80CD000F02AFBAD
:1001900000480047A51E0008A84100202B4B196805
:1001A0000868B0E8F04F80F30988BFF36F8F4FF015
:1001B000000080F3118870470000000006480068C6
:1001C000006880F3088862B661B6BFF34F8FBFF353
:1001D0006F8F00DF00BF00BF08ED00E0DFF80C000C
:1001E000016841F470010160704700BF88ED00E0D4
:1001F000EFF30980BFF36F8F144B1A681EF0100FD6
:1002000008BF20ED108A20E9F04F106008B44FF0CD
:10021000500080F31188BFF34F8FBFF36F8F02F050
:100220006DFB4FF0000080F3118808BC1968086866
:10023000B0E8F04F1EF0100F08BFB0EC108A80F34A
:100240000988BFF36F8F704700BF00BF70000020A8
:10025000EFF30580704700000648804706480047D6
:10026000FEE7FEE7FEE7FEE7FEE7FEE7FEE7FEE766
:10027000FEE7FEE749150008890100082DE9F05F57
:100280000546002092469B46884606468146402405
:100290001BE0284641464746224600F0EFF8534609
:1002A0005A46C01A914110D311461846224600F012
:1002B000D6F82D1A67EB01084F462246012000218F
:1002C00000F0CDF817EB00094E41201EA4F1010407
:1002D000DFDC484631462A464346BDE8F09F40EA07
:1002E00001039B0703D009E008C9121F08C0042AB4
:1002F000FAD203E011F8013B00F8013B521EF9D29B
:1003000070472DE9FE4F81EA030404F0004421F018
:10031000004100944FF0000B23F0004350EA010429
:100320005ED052EA03045BD0C3F30A54C1F30A550A
:100330002C44A4F2F3340194A0FB0254C1F3130142
:1003400041F48011C3F3130343F4801301FB02440F
:1003500000FB034E840A970A44EA815447EA835714
:10036000A4FB076802958D0A05FB07854FEA932CCD
:1003700004FB0C542705029D4FEA065847EA16373E
:10038000B5EB08056EEB070C870E920E47EA811756
:1003900042EA8312A7FB0201B6EB0B0164EB0004F7
:1003A0002B0D43EA0C335E1844EB1C50DA465146E1
:1003B000E7FB0201C5F313044FEA0B3343EA14537E
:1003C0004FEA0432019C43EA0603A4F10C040294B0
:1003D000009CCDE900B400F070F803B0BDE8F08FE8
:1003E00000200146F9E70EB540F2334102910021A9
:1003F000CDE900110A460B4600F05FF803B000BDDE
:10040000C1F30A5210B5C1F3130140F2FF3341F4B6
:1004100080119A4201DA002010BD40F233439A4223
:10042000A2F2334203DC524200F028F810BD9040A3
:1004300010BD30B50B46014600202022012409E002
:1004400021FA02F59D4205D303FA02F5491B04FA8D
:1004500002F52844151EA2F10102F1DC30BD202A6C
:1004600004DB203A00FA02F1002070479140C2F10B
:10047000200320FA03F3194390407047202A04DB3D
:10048000203A21FA02F00021704721FA02F3D0400D
:10049000C2F12002914008431946704710B5141E5E
:1004A00073F1000408DA401C41F1000192185B412D
:1004B0001A4301D120F0010010BD2DE9F04D924604
:1004C0009B4611B1B1FA81F202E0B0FA80F220321B
:1004D0009046FFF7C4FF04460F4640EA0A0041EA8F
:1004E0000B0153465A46084313D0114653EA010004
:1004F00019D0C8F140025046FFF7C0FF05460E462E
:10050000504659464246FFF7AAFF084305D001204E
:1005100004E020463946BDE8F08D0020054346EA58
:10052000E0762C4337430A986305E40AA0EB080001
:100530000022FD0A44EA47540A3002D50020014651
:10054000E9E7010510196941DDE90845001969412C
:10055000BDE8F04DA2E72DE9FE4F804681EA030099
:10056000C00F0C46009021F0004123F00045B8EB8D
:100570000200A94105D24046214690461C460B4642
:10058000024623F00040104347D0270DC7F30A006E
:10059000C3F30A510290401A019040286BDAC3F36A
:1005A000130040F4801B0098924620B10023D2EB48
:1005B000030A63EB0B0B01985946C0F14002504609
:1005C000FFF74DFF06460D4650465946019A00F08A
:1005D0001BF910EB08006141002487EA115284EAFC
:1005E000E7731A4340D0009A62B3019A012A4FEA96
:1005F000075215DC001B61EB02014FF0004202EADA
:100600000752CDE90042001C41F5801132462B46CD
:10061000FFF753FF03B0BDE8F08F40462146F9E7EE
:10062000001B61EB0201001C41F5801300185B41C7
:100630002018A2F5001747EB030140EAD570B61960
:100640006D4111E06D084FEA360645EAC0754FEA84
:100650000752001B61EB0201001C41F580114908A3
:100660004FEA30000019514132462B4603B0BDE835
:10067000F04FFFF713BF0098012240000023D0EB9A
:10068000020263EBE073009821464FEAE074B8EB96
:10069000000061EB0401E9E783F000435BE781F0D0
:1006A000004158E72DE9F04D81EA030404F0004BC6
:1006B00021F0004514464FF0000A23F0004150EAB3
:1006C000050220D054EA01021DD0C5F30A570246A4
:1006D000C5F31303C1F31300C1F30A5640F48015A8
:1006E00043F48013A7EB0608101BD64608F2FD382A
:1006F00073EB050002D308F1010801E092185B4199
:10070000B8F1000F03DA00200146BDE8F08D0020AB
:100710004FF48011064684460EE0171B73EB050765
:1007200005D3121B63EB050306434CEA010C490891
:100730004FEA300092185B4150EA0107EDD152EACE
:10074000030012D082EA040083EA0501084305D0C1
:10075000101BAB4106D20122002306E000224FF01D
:10076000004302E06FF0010253101AEB06004CEB5D
:10077000085110EB0A0041EB0B01BDE8F04DFFF70B
:100780008DBEC1F30A52C1F3130140F2FF3341F4AD
:1007900080119A4202DA00200146704740F233434A
:1007A0009A42A2F2334202DC5242FFF767BEFFF7E1
:1007B00056BE000030B5041E71F1000404DB4FF09A
:1007C0000044404264EB0101141E73F1000405DB98
:1007D0001C464FF00043524263EB0403994208BFAA
:1007E000904230BD064C074D06E0E06840F0010342
:1007F00094E8070098471034AC42F6D3FFF7C8FCE2
:1008000090310008B0310008202A06DBCB17203ACF
:1008100041FA02F043EAE07306E041FA02F3D04005
:10082000C2F120029140084319467047FEE7704725
:1008300070B5044600F0ECF80546601C02D0044890
:100840000078044400F0E4F8401BA042FAD370BDE5
:100850003C0000202DE9F84FDFF87CB100224FF07A
:1008600001084FF0030A4FF00F090BF1040E00BF0F
:100870000B6808FA02F42340A3426ED14D68022DA2
:1008800001D0122D0ED1D50800EB850CDCF82050DC
:100890005607F70E09FA07F6B5430E69BE402E4318
:1008A000CCF82060066855000F790AFA05FC07F0BD
:1008B000030726EA0C06AF40374307604E68012E57
:1008C00005D0022E03D0112E01D0122E0ED1866833
:1008D000CF6826EA0C06AF40374387604668A643D8
:1008E0000C79C4F30014944034434460C6688C68A7
:1008F00026EA0C06AC403443C4604C68E40065D57D
:10090000364C256845F480452560246822F00305AF
:1009100004F480440094324C2E19D6F80848950708
:100920002F0F09FA07F5AC432E4DA84201D100253F
:1009300024E02D4DA84201D101251FE02B4DA842F6
:1009400001D102251AE02A4DA84201D1032515E064
:10095000284DA84202D1042510E037E0264DA842D8
:1009600001D105250AE0254DA84201D1062505E063
:10097000234DA84201D1072500E00825BD402543AD
:10098000C6F80858DBF800405D464E689C43F60305
:1009900000D51C432C60DEF8004075464E689C4331
:1009A000B60300D51C432C600B4D08352C684E68EF
:1009B0009C43F60200D51C432C60074D0C352C6877
:1009C0004E689C43B60200D51C432C60521C102A72
:1009D000FFF44EAFBDE8F88F003C014044380240C0
:1009E00000300140000002400004024000080240C4
:1009F000000C0240001002400014024000180240A7
:100A0000001C02400AB1816170470904FBE7000045
:100A100001488068704700003C000020024881685F
:100A200002781144816070473C0000200B4810B5EB
:100A3000016841F400710160016841F48061016066
:100A4000016841F480710160032000F08BF80F20F1
:100A500000F006F800F024F8002010BD003C024031
:100A600070B50D4D04464FF47A712878B1FBF0F063
:100A70000A490968B1FBF0F000F020FB48B9102CDE
:100A800007D200222146501E00F04CF800206C6076
:100A900070BD012070BD00003C0000204800002017
:100AA0001F4808B5016841F480410160006800F406
:100AB000804000901A48001F016841F08051016099
:100AC000006800F080500090032000F04BF80022F6
:100AD00011466FF00B0000F025F8002211466FF070
:100AE0000A0000F01FF8002211466FF0090000F024
:100AF00019F800221146501F00F014F80022114688
:100B0000101F00F00FF800220F21901E00F00AF8CD
:100B100000220F21BDE80840501E00F003B800007D
:100B200044380240F0B40E4B1B680C46C3F302235A
:100B3000C3F10705042D00D90425191D072901D289
:100B4000002300E0DB1E012606FA05F1491E2140C4
:100B500099409E40761E16403143F0BC00F098BC90
:100B60000CED00E0064900F0070208684FF6FF03AD
:100B7000184040EA0220034A104308607047000012
:100B80000CED00E00000FA052DE9F0470E460500E7
:100B900065D0DFF81481D8F80000F7B200F00F003C
:100BA000B04207D288F80070D8F8000000F00F00BB
:100BB000B04254D128683D4C810712D5400703D577
:100BC000206840F4E05020602878000703D52068B2
:100BD00040F4604020602068A96820F0F0000843DD
:100BE00020602878C0072DD030496868083901286E
:100BF00012D0022813D0032811D0096889070029D0
:100C00002DDA216821F0030101432160FFF700FF85
:100C1000814641F2883A0EE009688903EFE70968E6
:100C20008901ECE7FFF7F4FEA0EB0901514502D979
:100C30000320BDE8F0872068696800F00C00B0EB85
:100C4000810FEFD1D8F80010404601F00F01B142FA
:100C500007D90770006800F00F00B04201D00120F2
:100C6000E7E72878400705D52068E96820F4E050D8
:100C7000084320602878000706D52068296920F4F9
:100C8000604040EAC100206000F04CF82168084A4A
:100C9000C1F30311515CC840064908600F20FFF7FB
:100CA000DFFE0020C5E70000003C0240083802409B
:100CB00078310008480000200F2202600C4A1368B7
:100CC00003F003034360136803F0F00383601368C9
:100CD00003F4E053C36012684FF4E05303EAD20216
:100CE00002610448006800F00F00086070470000CF
:100CF00008380240003C024001480068704700008C
:100D0000480000200448054900680968044AC1F306
:100D10008221515CC84070474800002008380240DA
:100D200088310008154810B5006810F00C0214480E
:100D300013D01449042A0FD0082A0ED10F4C241FB7
:100D40002268236802F03F025B0207D52068C0F3E7
:100D50008810A0FB010106E0084610BD2168C1F320
:100D60008811A1FB00010023FFF788FA2168C1F375
:100D70000141491C4900B0FBF1F010BD08380240A8
:100D80000024F40040787D012DE9F84F050076D06D
:100D90002878DFF8F8B2BE4CC00749D0DBF8001065
:100DA0005846C1F38101012908D00068C0F38100D1
:100DB00002280AD1201D0068400206D52068800361
:100DC00036D568680028E2D032E06868B0F5803F28
:100DD00010D0B0F5A02F206810D020F48030206013
:100DE000206820F4802020606868A0B1FFF710FE22
:100DF00006460CE0206840F48030F4E740F48020A0
:100E00002060F7E7FFF704FE801B642873D8206892
:100E10008003F7D50CE0FFF7FBFD064605E000BFB9
:100E2000FFF7F6FD801B6428F0D820688003F7D414
:100E30002878DFF8608280074FF000093ED5DBF8A4
:100E40000010584611F00C0F09D00068C0F3810063
:100E500002280BD18D48001F0068400206D420688C
:100E6000800715D5E868012809D111E0E868B8B114
:100E70000120C8F80000FFF7CBFD064605E002E1BF
:100E8000FFF7C6FD801B0228C0D820688007F7D571
:100E90002068296920F0F80040EAC10020600DE0D8
:100EA000C8F80090FFF7B4FD064604E0FFF7B0FD78
:100EB000801B02281FD820688007F7D428780007F5
:100EC00022D5724E744869696C3671B10121016096
:100ED000FFF79EFD074604E0FFF79AFDC01B0228BE
:100EE00009D830688007F7D50EE0C0F80090FFF70A
:100EF0008FFD074605E083E0FFF78AFDC01B02284F
:100F00007ED830688007F7D42878400768D5DFF8A6
:100F10007CA100270AF1380ADAF80000C0000BD4DF
:100F2000DAF8001041F08051CAF80010DAF8000039
:100F3000012700F080500090584E3068C00510D452
:100F4000306840F480703060FFF762FD009005E08B
:100F5000FFF75EFD0099401A022851D83068C0059D
:100F6000F6D54A4EA868683601280FD005283068A3
:100F700010D020F001003060306820F004003060B4
:100F8000A868B8B1FFF744FD00900FE0306840F06A
:100F90000100F4E740F004003060F7E7FFF738FDA8
:100FA0000099411A41F28830814264D83068800744
:100FB000F4D50EE0FFF72CFD009007E0FFF728FDC9
:100FC0000099411A41F28830814254D83068800734
:100FD000F4D42FB1DAF8001021F08051CAF80010D3
:100FE000A869C0B3DBF80010C1F3810102294AD01F
:100FF0000228484607D0C8F86000FFF709FD00E066
:1010000039E005463AE04746C8F86000FFF700FDC2
:10101000064604E0FFF7FCFC801B02282BD8206862
:101020008001F7D4D5E907010843A96A1C4A490899
:1010300002EB01416A6A41EA8211084395F82C10DB
:1010400040EA01611148001F016001203866FFF786
:10105000DFFC054605E014E0FFF7DAFC401B022840
:1010600009D820688001F7D50BE000BFFFF7D0FC5E
:10107000401B022802D90320BDE8F88F20688001B8
:10108000F4D40020F8E70120F6E700000838024019
:101090000038024000004742800E47420070004086
:1010A0000000FFFF4FF0E0210428086903D020F082
:1010B00004000861704740F00400FAE710B5401ED4
:1010C000B0F1807F01D3012010BD4FF0E0246061BA
:1010D0000F21601700F0DCF90020A06107202061DB
:1010E000002010BDFEE700002DE9F05F0AAC94E897
:1010F000E05F1E4CA061A180E280E36125816681F2
:10110000A781A4F80E80C4F82090A4F810A0A4F839
:1011100012B0A4F814C0A4F816E000F055F80120AD
:1011200020703820A0701420FFF782FB302000F0E0
:1011300051F90520FFF77CFB302000F04BF901202E
:10114000FFF776FB302000F045F90120FFF770FB38
:10115000382000F03FF90F2000F03CF9012000F0AA
:1011600039F9BDE8F05F0220FFF762BB18000020EC
:1011700010B5094C0122E188A069FFF743FC0A2061
:1011800000F06CF80022E188A069FFF73BFCBDE8A5
:1011900010403C2000F062B8180000201FB5024645
:1011A00003A1684600F0FCF9684600F076F81FBD20
:1011B00025640000020003488188806900D0012274
:1011C000FFF720BC1800002000B587B005A96846CD
:1011D000FFF772FD0398A8B3FFF794FD5FEA4000A4
:1011E000FFF701F99FED191B53EC112BFFF789F85D
:1011F000FFF706F917490A6842F002020A60164929
:101200000A6822F010020A600A6822F001020A60ED
:101210000A6822F004020A600A6842F008020A60C2
:101220000D492831401E08600920091D08600A493F
:10123000012014310860081F016821F001010160DC
:1012400007B000BDFFE7FFF75DFDC9E78DEDB5A075
:10125000F7C6B03E40380240000400400949401E35
:10126000086008481C38016821F001010160054947
:101270002C390A6842F001020A600168C907FCD0F3
:10128000704700002C04004010B5012000F0A2F8C7
:10129000BDE810400320FFF7CBBA70B50646002426
:1012A00009E00120FFF786FF284600F021F8641CC2
:1012B000E4B2102C02D2355D002DF2D170BD0000D9
:1012C000491E01F00F01012808D0022809D0032887
:1012D0000AD041F0D00000BF00F07CB841F080009F
:1012E000FAE741F0C000F7E741F09000F4E70000B2
:1012F0002DE9F84F0209364C02F0080302F0040B06
:10130000217802F0020902F0010700F0080A00F05B
:10131000040600F0020500F00108009301292FD017
:10132000022952D13A46218A206AFFF76BFB4A46CE
:10133000618A206AFFF766FB5A46A18A206AFFF796
:1013400061FBE18A009A206AFFF75CFBFFF710FF60
:101350004246218A206AFFF755FB2A46618A206AA5
:10136000FFF750FB3246A18A206AFFF74BFB52463B
:10137000E18A206AFFF746FBBDE8F84FFFF7F8BEA9
:1013800042462189E069FFF73DFB2A466189E06911
:10139000FFF738FB3246A189E069FFF733FB52467D
:1013A000E189E069FFF72EFB3A46218A206AFFF7C0
:1013B00029FB4A46618A206AFFF724FB5A46A18A24
:1013C000206AFFF71FFB009AD2E7BDE8F88F000004
:1013D0001800002010B504460020FFF7EBFE204661
:1013E000BDE81040FFF784BF2DE9F041234886B0E7
:1013F0000024016841F001010160016801F0010170
:101400000591016841F008010160016801F00801DF
:101410000591016841F0040101600068184F00F077
:10142000040040F2FF750590002229463846FFF778
:10143000E9FADFF850804FF4E0760022314640466A
:10144000FFF7E0FA00950125CDE9015469463846D9
:101450000394FFF7FFF9F001CDE9000469460A485B
:101460000294FFF7F7F90096CDE90154694640462A
:101470000394FFF7EFF906B0BDE8F0813038024081
:101480000000024000080240000C0240FEE77047E6
:101490000907090E002806DA00F00F0000F1E0202D
:1014A00080F8141D704700F1E02080F800147047A8
:1014B00010B5FFF7B3FABDE8104000F057BD0000CB
:1014C00010B51F4892B00024016841F080510160BE
:1014D000006800F0805011901A48016841F4804182
:1014E00001600068069400F4804011900220009092
:1014F00001200390102004906846FFF745FC00B1DE
:10150000FEE70F20CDE90C040E940F9400210CA8E7
:101510001094FFF739FB00B1FEE7FFF7EDFB4FF446
:101520007A71B0FBF1F0FFF7C9FD0420FFF7BAFDB7
:1015300000220F21501EFFF7F5FA12B010BD000077
:1015400040380240007000401048016841F47001CA
:1015500001600F48016841F0010101600C4A00215F
:101560000832116002680B4B1A400260031D0A4AE0
:101570001A60026822F48022026005480C30016083
:1015800002495806803908607047000088ED00E085
:1015900000380240FFFFF6FE10300024FEE7000096
:1015A0000FB4084B10B504A902AA039800F0DEF8A6
:1015B000044602A9002000F070FC204610BC5DF833
:1015C00014FB00009B1E000802E008C8121F08C19F
:1015D000002AFAD170477047002001E001C1121FB4
:1015E000002AFBD1704700002DE9FF5F82B0002187
:1015F000DDE90430020DDDF840B0034318D044F6B5
:101600001050A2F2FF3242431514119801281FD046
:10161000A5EB0B00401C5FEA000A4FF000064E4F9E
:10162000DFF83891B046504615D5CAF1000413E0F2
:10163000119801244AA3012801D16FEA0B010298F5
:10164000119AC0E90031C0E9024206B0BDE8F09F3E
:10165000CBF10000DFE704460021404A491842EB85
:101660000450CDE9001012E0E00707D032463B46B7
:1016700040464946FEF745FE8046894632463B468F
:1016800010461946FEF73DFE06460F466410002C34
:10169000EAD1DDE90401DDE90023BAF1000F06DA41
:1016A000FEF72FFE42464B46FEF72BFE05E0FEF707
:1016B000F9FF42464B46FEF7F5FF04460E46002270
:1016C000284BFFF777F803D84FF0FF30014607E0CB
:1016D0000022254B20463146FEF73DFFFFF751F82B
:1016E000102409E0002C0ADB0A220023FEF7C6FDC5
:1016F000039B30321A55641E50EA0102F2D1641C79
:10170000039AC4F111031444119A012A03D001224F
:1017100008430DD10AE0084304D000204FF0110B1C
:10172000119072E7A3EB0B056D1E0DE05B4504DD28
:101730004FF0000205F1010504E003DA4FF000026A
:10174000A5F10105002AECD002981199C0E90231F7
:10175000C0E9004579E70000000014400000F03FB8
:10176000300000000000F0430000E03F2DE9FF4F93
:1017700095B09B468946064600250FE2252877D17D
:1017800000242746F84A0121059400E0044316F896
:10179000013F203B01FA03F01042F7D130782A28AC
:1017A00011D06FF02F033078A0F13002092A16D83B
:1017B000059A44F0020402EB820203EB4202104459
:1017C000761C0590EFE759F8042B0592002A03DAFE
:1017D000504244F40054059044F00204761C3078E2
:1017E0002E2816D116F8010F44F004042A280DD033
:1017F0006FF02F023078A0F13003092B09D807EBE6
:10180000870302EB4303C718761CF3E759F8047B00
:10181000761C30786C280FD006DC4C2817D068284E
:101820000DD06A2814D104E0742810D07A280FD182
:101830000DE044F400140AE044F4801401E044F4A0
:1018400040147278824202D104F58014761C761C12
:10185000307866280BD013DC582877D009DC0028B4
:1018600075D04528F6D04628F4D047281AD19DE1F6
:1018700018E0632835D0642879D0652812D195E125
:10188000702873D008DC6728F1D069286FD06E28E3
:101890000DD06F2806D1B5E073282CD0752875D0EF
:1018A000782874D05A46179990476D1C75E1C4F397
:1018B0000250022809D003280DD0D9F800100428BE
:1018C0000DD00D6009F1040967E1D9F80010EA179D
:1018D000C1E90052F6E7D9F800100D80F2E70D706B
:1018E000F0E719F8041B8DF8001000208DF80100B6
:1018F000EA46012003E059F804AB4FF0FF306107DE
:101900004FF0000102D40DE008F101018846B94210
:101910000FDA8045F8DB1AF808100029F4D108E046
:1019200008F1010188468142FADB1AF80810002903
:10193000F6D105985B46A0EB080721463846179A72
:1019400000F094FA284400EB080507E04DE029E197
:101950000DE01AF8010B5A4617999047B8F10108A3
:10196000F7D25B4621463846179A13E142E00A2235
:101970000092C4F302524FF0000A022A08D059F82C
:1019800004CB032A4FEAEC710AD00DE029E02AE0EB
:1019900009F1070121F00702F2E802C1914609E0CE
:1019A0000FFA8CFC4FEAEC71042A03D14FFA8CFC3D
:1019B0004FEAEC71002907DA0A460021DCF1000C3D
:1019C00061EB02012D2202E0220504D52B228DF8C5
:1019D0000420012203E0E20701D02022F7E790462D
:1019E00059E00A2102E010220DE010214FF0000A18
:1019F00000910BE010224FF0000A44F00404082785
:101A0000009203E008224FF0000A0092C4F3025251
:101A1000022A05D059F804CB0021032A08D009E096
:101A200009F1070121F00702F2E802C1914605E041
:101A30001FFA8CFC042A01D10CF0FF0C4FF00008B7
:101A4000220728D5702806D0009B83F0100353EAA4
:101A50000A0305D00EE040228DF80420012208E0A0
:101A60005CEA010206D030228DF804208DF80500D2
:101A700002229046009B83F0080353EA0A030AD12E
:101A80005CEA010201D1620705D530228DF80420FD
:101A90004FF001087F1E582804D034A003900EA8F0
:101AA00002900DE036A0F9E753466046009AFEF733
:101AB000E5FB84460398825C0298401E0290027007
:101AC0005CEA0100F0D1029806A9081A00F1200A88
:101AD000600702D524F4803400E00127574502DD79
:101AE000A7EB0A0000E0002000EB0A010090059837
:101AF0004144401A0590E00306D45B462146179AFC
:101B0000059800F0B3F90544002706E001A85A46FD
:101B1000C05D179990476D1C7F1C4745F6DBE003BD
:101B20000CD55B462146179A059800F09FF90544AD
:101B300004E030205A46179990476D1C0099481EC2
:101B400000900029F5DC08E0029802995A460078D6
:101B5000491C0291179990476D1CBAF10001AAF136
:101B6000010AF1DC65E1000009280100303132335F
:101B700034353637383961626364656600000000C9
:101B800030313233343536373839414243444546B3
:101B90000000000000F058F90544761C3078002859
:101BA0007FF4ECAD19B02846BDE8F08F620700D491
:101BB000062709F1070222F0070CFCE80223E146A0
:101BC00003F000485FEA080C02D00FF2702C0DE021
:101BD0005FEA045C02D50FF2682C07E05FEAC47C80
:101BE00002D00FF2602C01E0AFF2700C4FF0FF3822
:101BF00023F00043CDF850C065280CD006DC452802
:101C000009D046281DD047283DD13DE0662818D090
:101C100067287ED138E00021112F01DB112000E080
:101C2000781CCDE9000106A90EA8FFF7DDFCDDE96F
:101C30000F010E9A03910021009207F1010A04910D
:101C40004DE04FF000400097CDE9011006A90EA825
:101C5000FFF7CAFCDDE90F0203920E9B11990022E7
:101C6000DDF80CA00093049211B9791C00EB010A75
:101C7000B7EB0A0004D4C0F1FF3007F1010A049069
:101C8000AAEB0700019044E0012F00DA01270021B0
:101C9000112F01DD112000E03846CDE9000106A931
:101CA0000EA8FFF7A1FCDDE90F010E9A03910021B8
:101CB00004910092BA4621070CD40399514500DAE9
:101CC0008A46BAF1010F05DD009AAAF10101515CC3
:101CD000302908D0B84202DA10F1040F06DA0121E7
:101CE000CDE9011015E0AAF10101E9E7002805DCC2
:101CF000049901440491AAEB000102E0411C514502
:101D000000DD8A460499401A401C01904FF00040C3
:101D10000290200704D40198504501DBCDF80480DF
:101D200000208DF84F0002980DF14F07B0F1004FE1
:101D300025D02B200E9002984FF0020800280CDAD4
:101D4000404202902D200E9007E00A210298FEF7F3
:101D500070FB3031029007F8011DB8F10001A8F1C5
:101D60000108F2DC02980028EFD1791E0E98087065
:101D7000307800F0200040F0450007F8020D12A86E
:101D8000C01B00F107081498007800B1012000EB97
:101D90000A01019801EBE07105984144401A401E88
:101DA0000590E00306D45B462146179A059800F09B
:101DB0005DF805441498007818B15A461799904771
:101DC0006D1CE00324D55B462146179A059800F068
:101DD0004DF805441CE00498002807DBDDE9030109
:101DE000884203DD0098405C179901E01799302084
:101DF0005A469047049805F10105401C049001984B
:101E0000401E019004D12E205A46179990476D1C10
:101E1000BAF10001AAF1010ADDDC05E017F8010BB7
:101E20005A46179990476D1CB8F10001A8F10108B6
:101E3000F4DC5B462146179A0598ABE62D000000BE
:101E40002B000000200000002DE9F0410446002591
:101E50001E461746880404D405E039462020B047C2
:101E60006D1C641EF9D52846BDE8F0812DE9F041CE
:101E7000044600251E469046C80301D5302700E0E1
:101E80002027880404D505E041463846B0476D1C3C
:101E9000641EF9D52846BDE8F0810A68531C0B6022
:101EA0001070704725488AB0002545608560FEF7B0
:101EB000BDFDFFF705FBFFF797FA0DF1140C80232A
:101EC0004022202110208CE80F00082104221C4809
:101ED000CDE9022102240126CDE9006403460490E5
:101EE00082150115FFF700F9FFF7CEF90022022154
:101EF000032000F0B7FD1349C860E8B101F1080301
:101F00004FF47A773A4610A11148CDE9004500F028
:101F1000ADFF0C4B3A460A330EA10D48CDE9004502
:101F200000F0A4FFCDE9006500233A460BA10E485E
:101F300000F09CFF00F0A6FCFEE70000AC000020D3
:101F4000000002400000002053656E64657231009D
:101F50006127000853656E646572320052656365DF
:101F600069766572000000008126000810B500F057
:101F7000A9FF012803D0BDE8104000F05DBD10BDF1
:101F80002DE9F041184C0F460546E6682068001D13
:101F900000F0B0FA38B9206890F82C100120884081
:101FA000216981432161681C07D137B12168BDE8EF
:101FB000F0410E48091D00F0E7BA20683544B542EB
:101FC0004560216805D2A06BBDE8F041091D00F015
:101FD000C3BA606B091D00F0BFFAA06A854200D247
:101FE000A562BDE8F081000070000020943D002053
:101FF0002DE9F041054600F0D3FA2E4CA068401CB4
:10200000A06020682C4F10B1606940B32DE02560BE
:10201000A068012829D1002606EB860007EB800086
:1020200000F08CFA761C072EF6D323488C3000F093
:1020300085FA2148A03000F081FA1F48B43000F042
:102040007DFA1D48C83000F079FA1B48DC3000F0FA
:1020500075FA19488C3060631430A06305E020687D
:10206000E96AC06A884200D82560606A401C6062E4
:10207000E96A0120226988401043206101EB810058
:1020800007EB8000291D00F07FFA00F0A9FA6069D3
:1020900000280CD02068E96AC06A884207D2074944
:1020A0004FF080500860BFF34F8FBFF36F8FBDE8D4
:1020B000F081000070000020B83C002004ED00E03A
:1020C00070B5114E114C17E000F010FC3068B8B13B
:1020D00000F0F0FF00F064FAF068C568281D00F019
:1020E00009FAA068401EA0606068401E606000F0B1
:1020F00077FA284600F055F860680028E4D170BDF2
:1021000000F0D8FFF8E70000803D002070000020BC
:1021100030B4026C0B46002A0BD0C1681144C16078
:102120004468A14201D30168C16030BC1846FEF783
:10213000D6B830BC70472DE9F041856B1746044690
:102140000026026C82B1C7B1E068FEF7C8F8E1680A
:10215000206C091AE1602268914202D26168081A73
:10216000E060022F16D017E02068A8B9606800F080
:102170001BFF0646002060600EE0A068FEF7AFF887
:10218000216CA0680844A0606168884204D320687C
:10219000A06001E005B16D1E6D1CA5633046BDE871
:1021A000F08110B50446006B00F02EFA2046BDE821
:1021B000104000F029BA000010484FF47051420757
:1021C00006D0C01D0D4920F00700411AC1F570511D
:1021D0000B4A00230144C2E900030839103A21F0F8
:1021E000070111604B600B600B1AC0E9001393608C
:1021F0004FF000405360D06070470000B8000020EE
:102200005C000020074C4FF08056074DFFF758FF49
:1022100020680128FAD92E60BFF34F8FBFF36F8F6C
:10222000F4E70000B83C002004ED00E02DE9F047A1
:102230009A46DDE9098481466FF00303206B03EBC6
:1022400082021044089D20F00706700707D0502036
:1022500080F31188BFF34F8FBFF36F8FFEE7231812
:102260000A5C83F834200A5C12B1401C1028F6D3B3
:10227000002784F84370072D00D30625E562C4E9E2
:102280001157201D00F065F904F1180000F061F904
:102290002461C5F107006462A061E76484F85070AE
:1022A00052464946304600F00FF92060B8F1000F61
:1022B00001D0C8F80040BDE8F087000030B51149F2
:1022C00000E011460A688242FBD34B685C188442E6
:1022D00003D1406818444860084643681C1894427B
:1022E00009D1084C103C2468A24209D052681A4413
:1022F00042600A6812680260814200D0086030BD06
:102300000460F9E75C00002010B5044600F048F9CD
:10231000A06B28B15FF0000400F062F9204610BD08
:102320000124F9E70648416B096829B1416BC96886
:10233000C9684968816270474FF0FF31FAE70000D1
:102340007000002008484068401C4FF0500080F3A7
:10235000118804D0BFF34F8FBFF36F8FFEE7BFF339
:102360004F8FBFF36F8FFEE7640000202DE9F0412F
:10237000044600F015F994F9455004F1240609E0EB
:10238000606A48B1304600F05BFE08B100F008FA20
:102390006D1E6DB2002DF3DC4FF0FF3684F8456002
:1023A00000F01EF900F0FCF894F9445004F1100715
:1023B00009E0206948B1384600F042FE08B100F05B
:1023C000EFF96D1E6DB2002DF3DC84F84460BDE8BA
:1023D000F04100F005B900002DE9F0410546002765
:1023E00000F084FA314E306808B9FFF7E5FEF06876
:1023F00005424BD1C5B3083568070ED005F007007C
:10240000C0F108000544680707D0502080F3118808
:10241000BFF34F8FBFF36F8FFEE72DB37068854218
:1024200034D82248103001460C6801E020460C46A2
:102430006168A94202D221680029F7D131688C4233
:1024400024D007682168016060680837411B1029A3
:102450000FD96019420708D0502080F31188BFF3CC
:102460004F8FBFF36F8FFEE710E041606560FFF7AD
:1024700025FF61687068401A7060B268904200D2AF
:10248000B060F06801430020C4E9000100F012FED2
:10249000780707D0502080F31188BFF34F8FBFF328
:1024A0006F8FFEE73846BDE8F08100004C00002049
:1024B0000449086818B10868826C521C8264086874
:1024C000704700007000002010B5031F4FF08074AB
:1024D0001C601B1F21F001011960191F044B0B60C8
:1024E00014390A60091F6FF0020244380A6010BDF7
:1024F00045230008D0E9013201699A60D0E901233F
:102500005A604A68824201D182684A6000220261B0
:102510000868401E0860704710B5040006D000F03F
:102520003FF8A46B00F05CF8204610BD502080F30B
:102530001188BFF34F8FBFF36F8FFEE700F10801E3
:102540004FF0FF32C0E90112C1600161002101605A
:10255000704700210161704730B50B685A1C02D0EA
:1025600000F1080202E0026904E02246546825688E
:102570009D42FAD953684B6099608A605160086146
:102580000168491C016030BD42684A6093688B60F5
:1025900093685960916008610168491C0160704747
:1025A000502080F31188BFF34F8FBFF36F8F0A491C
:1025B0004868401C486001280CD10848006810F0A9
:1025C000FF0F07D0502080F31188BFF34F8FBFF368
:1025D0006F8FFEE7704700006400002004ED00E00C
:1025E0000849486828B1401E486001D180F311882D
:1025F0007047502080F31188BFF34F8FBFF36F8F68
:10260000FEE700006400002070B5002827D0144DBC
:10261000A0F108046168E868014207D1502080F306
:102620001188BFF34F8FBFF36F8FFEE722683AB177
:10263000502080F31188BFF34F8FBFF36F8FFEE7F9
:102640008143616000F052F960686968084468601D
:102650002046FFF733FEBDE8704000F02BBD70BD93
:102660004C000020054814210068B0FBF1F14FF048
:10267000E020491E416107210161704748000020A8
:10268000254E08B5254D06F11004F068FFF744FF0C
:10269000032806D001210420FEF712FE20A0FEF739
:1026A000FCFD00231A466946F06800F0FFF9012896
:1026B00007D001210420FEF703FE1DA0FEF7EDFD6B
:1026C000E3E79DF80100A8B1A18801222846FEF7A2
:1026D00099F901210220FEF7F3FD19A0FEF7DDFDB7
:1026E0009DF80000FEF75AFDA18800222846FEF75B
:1026F00089F9CAE7618801222846FEF783F901219A
:102700000220FEF7DDFD12A0FEF7C7FD9DF80000D8
:10271000FEF744FD6188E8E7000000200008024061
:1027200051206E6F742066756C6C202020000000B4
:1027300052656365697665206572726F720000008C
:1027400053656E646572322053656E74200000001C
:1027500053656E646572312053656E74200000000D
:102760000A4C05460320FEF763F80023142229468D
:10277000E06800F095FA0128F4D001210420FEF76A
:102780009FFD03A0FEF789FDECE70000000000209C
:1027900053656E64206572726F72203A28000000E3
:1027A00001490120C86170477000002010B50C4637
:1027B00050B1094909681831FFF7CEFE2046BDE83F
:1027C00010400121FFF7DCBB502080F31188BFF3DC
:1027D0004F8FBFF36F8FFEE77000002070B50400CD
:1027E00039D01D4DE06A2968C96A884233D2A06990
:1027F000002804DB2868C06AC0F10700A061E16A14
:10280000164E01EB8101606906EB810188421FD100
:10281000201DFFF76FFE012150B9E06A00EB800236
:1028200056F8222022B92A6901FA00F082432A616F
:102830002868C06AE0622A6981401143296100EB7F
:10284000800006EB8000211DBDE87040FFF79CBEB4
:102850002868C06AE06270BD70000020B83C0020AB
:1028600028B107490A6A0260C96841607047502070
:1028700080F31188BFF34F8FBFF36F8FFEE7000027
:10288000700000201CB515480024CDE90040234607
:10289000802213A1144800F0E9FA012809D0401C55
:1028A0001AD1502080F31188BFF34F8FBFF36F8F81
:1028B000FEE7502080F31188BFF34F8FBFF36F8F77
:1028C00006484FF0FF312C38816201214161C4601C
:1028D000BDE81C4000F040B81CBD00009C0000207A
:1028E00049444C4500000000052200080248016BE5
:1028F000491C016370470000700000201448016B00
:1029000011B10121C16170470021C1610169B1FAB2
:1029100081F1C1F11F0101EB81020E4951F8223012
:102920006BB101EB820101F108034A6852684A6009
:102930009A4201D152684A60D168016070475020C4
:1029400080F31188BFF34F8FBFF36F8FFEE7000056
:1029500070000020B83C00201CB532480168324AA3
:10296000914207D1502080F31188BFF34F8FBFF3FE
:102970006F8FFEE700682C49491E884207D150201E
:1029800080F31188BFF34F8FBFF36F8FFEE72749A6
:1029900008780190FF20087008788DF800009DF8F5
:1029A00000009DF8002000F0F000904207D0502079
:1029B00080F31188BFF34F8FBFF36F8FFEE79DF851
:1029C00000001B4A00F0500010700720906005E0E6
:1029D0009DF800305B008DF80030401E9DF80030FF
:1029E0001B06F5D4000200F4E060906001980870C6
:1029F0000C482030016841F470010160016841F029
:102A000070410160FFF72EFE00205060FDF7E6FBED
:102A10000848016841F040410160FDF7CFFB00200C
:102A20001CBD000000ED00E071C20F4100E400E0B9
:102A30006400002034EF00E010B5502080F31188CE
:102A4000BFF34F8FBFF36F8F00F04AFA18B10449FC
:102A50004FF080500860002080F3118810BD000006
:102A600004ED00E070B50E46050013D0D6B105FBAD
:102A700006F04830FFF7B0FC040009D004F148012B
:102A800020468EB10160C0E90F56012100F0C4F864
:102A9000204670BD502080F31188BFF34F8FBFF3E5
:102AA0006F8FFEE70020E4E70060ECE72DE9FF4FC1
:102AB000002683B09B468A46040003D0BAF1000F7B
:102AC00008D011E0502080F31188BFF34F8FBFF37F
:102AD0006F8FFEE7206C38B1502080F31188BFF370
:102AE0004F8FBFF36F8FFEE700F0ECF9DFF8248122
:102AF0004FF000094FF0805748B9059838B1502081
:102B000080F31188BFF34F8FBFF36F8FFEE7FFF79E
:102B100047FDA56B45B351462046E668FFF7F8FA36
:102B2000BBF1000F13D0E660606A50B104F12400DD
:102B300000F086FA28B1C8F80070BFF34F8FBFF3DA
:102B40006F8FFFF74DFD012007B0BDE8F08F6D1EC0
:102B5000A563206810B9FFF7ABFC6060206900280E
:102B6000EFD004F11000E3E7059808B11EB106E0CC
:102B7000FFF736FD27E06846FFF772FE0126FFF7F4
:102B80002FFDFFF7B3FEFFF70BFD94F94400401C47
:102B900001D184F8449094F94500401C01D184F897
:102BA0004590FFF71DFD05A9684600F029F90028AA
:102BB00020460AD0FFF7DAFB00F07CFA2046FFF748
:102BC000A3FB0028A3D00020BEE7FFF79DFBD8B1F0
:102BD000206830B9FFF7E4FC6068FFF7FFFDFFF7FE
:102BE000FFFC04F124000599FFF7E0FD2046FFF704
:102BF000BDFB00F05FFA002889D1C8F80070BFF370
:102C00004F8FBFF36F8F82E72046FFF7AFFB00F0D7
:102C100051FA7CE704ED00E070B50D46040025D0C4
:102C2000FFF7BEFCD4E90F20216802FB00116160B0
:102C30000021A1632168A1600A46D4E90F01401E6A
:102C400000FB0121E16021464FF0FF3001F8440F05
:102C5000487004F110008DB1FFF770FC04F12400FE
:102C6000FFF76CFCFFF7BCFC012070BD502080F327
:102C70001188BFF34F8FBFF36F8FFEE721690029E3
:102C8000F0D000F0DDF90028ECD004494FF080507E
:102C90000860BFF34F8FBFF36F8FE3E704ED00E0F1
:102CA0002DE9FF4782B01D468A464FF00008040018
:102CB00003D0BAF1000F08D011E0502080F3118842
:102CC000BFF34F8FBFF36F8FFEE7206C38B15020FA
:102CD00080F31188BFF34F8FBFF36F8FFEE7022D94
:102CE0000AD1E06B012807D0502080F31188BFF390
:102CF0004F8FBFF36F8FFEE700F0E4F83F4F4FF0C8
:102D000000094FF0805648B9049838B1502080F33C
:102D10001188BFF34F8FBFF36F8FFEE7FFF740FCC3
:102D2000A06BE16B884207D3022D05D00498D0B187
:102D3000B8F1000F1AD01EE02A4651462046FFF790
:102D4000FAF9616A19B104F1240000F079F920B1AF
:102D50003E60BFF34F8FBFF36F8FFFF741FC012041
:102D600006B0BDE8F087FFF73BFC22E06846FFF7BE
:102D700077FD4FF00108FFF733FCFFF7B7FDFFF7D2
:102D80000FFC94F94400401C01D184F8449094F95C
:102D90004500401C01D184F84590FFF721FC04A9AF
:102DA000684600F02DF830B12046FFF7DFFA00F05A
:102DB00081F90020D4E7FFF7F3FBA06BE16B8842B9
:102DC00013D1FFF70DFC04F110000499FFF7EEFC9E
:102DD0002046FFF7CBFA00F06DF900289ED13E6047
:102DE000BFF34F8FBFF36F8F98E7FFF7F9FB2046D4
:102DF000FFF7BCFA00F05EF990E7000004ED00E098
:102E000070B50D46040019D005B3FFF7C9FB164A8B
:102E1000D1682868431C0FD02368126A934202D0FD
:102E200062688A421AD96268891A814216D2401AA7
:102E300028602046FFF714FD002410E0502080F3A6
:102E40001188BFF34F8FBFF36F8FFEE7502080F3E1
:102E50001188BFF34F8FBFF36F8FFEE70124FFF799
:102E6000BFFB204670BD0000700000202DE9FF5F11
:102E70008346DDE90E87994616468A469000FFF79D
:102E8000ABFA05001AD05420FFF7A6FA040012D0BE
:102E900025630021CDE90241CDE900874B4632464A
:102EA00051465846FFF7C2F92046FFF7A1F8012026
:102EB00004B0BDE8F09F2846FFF7A6FB4FF0FF30B7
:102EC000F6E700000548416919B1006B18B1002010
:102ED00070470120704702207047000070000020FA
:102EE0002DE9F0412E4C0027206B40B1A069401C19
:102EF000A061E06900B101273846BDE8F081E668CD
:102F0000761CE66013D1606B006838B1502080F306
:102F10001188BFF34F8FBFF36F8FFEE7606BA16B1C
:102F20006163A063206A401C2062FFF7FBF9A06A7E
:102F3000DFF87080864209D3606B006880B1606BF7
:102F4000C068C568686886420DD2A0622068C06A01
:102F500000EB800158F821000128CAD90127C8E7F1
:102F60004FF0FF30F1E7281DFFF7C4FAA86A18B147
:102F700005F11800FFF7BEFAE86A012122698140D5
:102F80001143216100EB800108EB8100291DFFF74F
:102F9000FBFAE86A2168C96A8842CDD30127CBE7EA
:102FA00070000020B83C002070B504004FF0000114
:102FB00040D0214D2868844207D0502080F31188EA
:102FC000BFF34F8FBFF36F8FFEE7A06C38B1401E89
:102FD000A064636CE26A9A422CD040B12AE050208F
:102FE00080F31188BFF34F8FBFF36F8FFEE7201D73
:102FF000FFF780FA114A012150B9E06A00EB800323
:1030000052F8233023B92B6901FA00F083432B6176
:10301000606CE062C0F10700A061E06A2B6981404A
:103020001943296100EB800002EB8000211DFFF7AE
:10303000ABFA0121084670BD70000020B83C0020AA
:103040002DE9F041C068C468ACB104F1180007462E
:10305000FFF750FA154D286B0126A0B139461448E8
:10306000FFF792FAE06A2968C96A88421CD90120F0
:10307000EE61BDE8F081502080F31188BFF34F8FDF
:10308000BFF36F8FFEE7201DFFF734FAE16A2A696C
:1030900006FA01F01043286101EB81000449B439BC
:1030A00001EB8000211DDBE70020E2E7700000203B
:1030B0006C3D00202DE9F0472C4D00242746286B5D
:1030C00038B1FFF76DFA286B401E2863286B40B1BA
:1030D00046E0502080F31188BFF34F8FBFF36F8F0E
:1030E000FEE7A968224E0120D1B3A6F1B4098046BB
:1030F0003068E8B1F068C46804F11800FFF7FAF925
:10310000201DFFF7F7F9E06A2A6908FA00F1114378
:10311000296100EB800109EB8100211DFFF734FAE2
:10312000E06A2968C96A8842E2D3C5F81C80DFE7F3
:103130000CB1FFF7F7F8AC6944B14646FFF7D0FE93
:1031400000B1EE61641EF9D10020A861E86938B1D0
:103150000849012738070860BFF34F8FBFF36F8F0F
:10316000FFF73EFA3846BDE8F08700007000002007
:103170006C3D002004ED00E00000000000000000B5
:10318000010203040607080900000000010203040D
:10319000B031000800000020AC000000C815000895
:1031A0005C320008AC000020FC400000D81500088C
:1031B00000000000000000006400C80100000000E2
:1031C0000000000180004000010F380000000000F6
:1031D00000000000000000000000000000000000EF
:1031E00000000000000000000000000001000000DE
:1031F00010000000000000000024F40000000000A7
:1032000000000000000000000000000000000000BE
:103210000000000000000000AAAAAAAA0000000006
:10322000000000000000000000000000000000009E
:10323000000000000000000000000000000000008E
:10324000000000000000000000000000000000007E
:0C32500000000000000000000000000072
:040000050800018965
:00000001FF
